:030000000200708B
:090020002D0400080B1D09050662
:090030001E5F19320F14050F2D9B
:090040002850190F1E14090523B4
:10007000753409900020785075300575310B753254
:1000800019753332E5319530F536E4C393B5300256
:1000900080075005753700801FB531028010500E63
:1000A000C395308533F0A93611EEF537800AB532A5
:1000B0000280E150DF853337A63708A3D534CB7FE4
:1000C000097A307B407583007E008A82E493FCE4E9
:1000D0008B8293B50402800340010EC3E40A0BDF58
:1000E000E98E60E56075F064790911EEF570A4AAF7
:1000F000F089F084ACF0FDEA89F0842DFBE5F02C6A
:0501000089F0842B22B0
:00000001FF
