:03000000020049B2
:090020002D0400080B1D09050662
:090030001E5F19320F14050F2D9B
:090040002850190F1E14090523B4
:100060008000753409900020785075300575310B8B
:10007000753219753332E5319530F536E4C393B5F1
:100080003002800750057537008034B53102802575
:100090005023C395308533F0A4AAF08536F084ACA4
:1000A000F0FDEA8536F0842DFBE5F02C8536F084F2
:1000B0002BF537800AB5320280CC50CA853337A67B
:1000C0003708A3D534B67F097A307B407583007E2C
:1000D000008A82E493FCE48B8293B504028003409F
:0800E000010EC3E40A0BDFFA74
:00000001FF
